:100000002AC100004EC100004CC100004AC10000DE
:1000100048C1000046C1000044C1000042C10000C8
:1000200040C100003EC100003CC100003AC10000D8
:1000300038C1000036C1000034C1000032C10000E8
:1000400030C100002EC100002CC100002AC10000F8
:1000500028C1000026C1000024C1000022C1000008
:1000600020C100001EC100001CC100001AC1000018
:1000700018C1000016C1000014C1000012C1000028
:1000800010C100000EC100000CC100000AC1000038
:1000900008C1000006C1000004C1000092C40000B5
:1000A000CDC4000008C5000043C50000FAC0000030
:1000B000F8C00000F6C00000F4C00000F2C000006C
:1000C000F0C00000EEC00000ECC00000EAC000007C
:1000D000E8C00000E6C00000E4C00000E2C000008C
:1000E000E0C00000DEC00000DCC00000DAC000009C
:1000F000D8C00000D6C00000D4C00000D2C00000AC
:10010000D0C00000CEC00000CCC00000CAC00000BB
:10011000C8C00000C6C00000C4C000005EC300002C
:1001200099C30000D4C300000FC40000BAC000008F
:10013000B8C00000B6C00000B4C00000B2C00000EB
:10014000B0C00000AEC00000ACC00000AAC00000FB
:10015000A8C00000A6C00000A4C00000A2C000000B
:10016000A0C000009EC000009CC000009AC000001B
:1001700098C0000096C0000094C0000092C000002B
:1001800090C000008EC000008CC000008AC000003B
:1001900088C0000086C0000084C0000082C000004B
:1001A00080C000007EC000007CC000007AC000005B
:1001B00078C0000076C0000074C0000072C000006B
:1001C00070C000006EC000006CC000006AC000007B
:1001D00068C0000066C0000064C0000062C000008B
:1001E00060C000005EC000005CC000005AC000009B
:1001F00058C0000056C0000054C0000008000000B5
:10020000BE922449123EABAAAA2ABECDCCCC4C3E0B
:1002100000000080BEABAAAAAA3E00000000BF00FA
:100220000000803F0000000000084178D3BB4387F6
:10023000D1133D190E3CC3BD4282AD2B3E68EC820A
:1002400076BED98FE1A93E4C80EFFFBE01C4FF7F8F
:100250003F000000000011241FBECFEFCDBFDFE341
:10026000DEBF00E00CBF18BE19BE1ABE1BBE10E2F6
:10027000A0E0B0E2E2E2FEE200E00BBF02C00790C5
:100280000D92A232B107D9F71BBE20E2A2E2B0E282
:1002900001C01D92A633B207E1F70E941B0D0C941A
:1002A0000F17AECECF93DF931F92CDB7DEB78091FD
:1002B0002A2090912B20E0912220F0912320BE0152
:1002C0006F5F7F4F19958981082E000C990B0F9055
:1002D000DF91CF910895FC01918195FFFDCF60835F
:1002E00080E090E00895FC0191819923ECF78081F2
:1002F00008954F925F926F927F928F929F92AF92EA
:10030000BF92EF92FF920F931F93CF937C014A010C
:100310005B0128013901FC01848182FF16C0D901EB
:10032000C801689412F8B695A79597958795169485
:10033000D1F7B901A801032E36E176956795579557
:1003400047953A95D1F7302D15C0D901C801689469
:1003500013F8B695A795979587951694D1F7B90197
:10036000A801032E37E176956795579547953A95FD
:10037000D1F7302D88159905AA05BB0508F4A6C04C
:1003800084169506A606B70608F4A2C0F701848174
:1003900082FD04C0880C991CAA1CBB1CC301B201BD
:1003A000A50194010E9494112F3F3105410551058B
:1003B00008F490C08FEF90E0A0E0B0E0C9EF05C076
:1003C000281739074A075B0758F0880F991FAA1F9B
:1003D000BB1FCD3F0CF48160CF5FC73089F74FC0A2
:1003E000CC230CF04CC0D501C401880F991FAA1F63
:1003F000BB1F880F991FAA1FBB1F880F991FAA1F19
:10040000BB1F481A590A6A0A7B0ACE3FF4F48DEFE3
:100410009FEF8C1B9109C7FD939504C0440C551C9C
:10042000661C771C8A95D2F7D501C401B695A795AD
:1004300097958795BC01CD01640D751D861D971D8F
:10044000A50194010E94941137C083E08C0FA5018F
:10045000940104C0220F331F441F551F8A95D2F701
:10046000DA01C901B695A79597958795BC01CD018D
:10047000640D751D861D971D0E9494111DC083E09B
:100480008C0FA501940104C0220F331F441F551F78
:100490008A95D2F7DA01C901B695A7959795879500
:1004A000BC01CD01640D751D861D971D0E94941120
:1004B0002150310941095109832F8F70C295C07FA6
:1004C000C82BF701C783268381E018C080E016C0DF
:1004D00080E014C0D501C401880F991FAA1FBB1F5B
:1004E000880F991FAA1FBB1F880F991FAA1FBB1F28
:1004F000481A590A6A0A7B0AC9EF89CFCF911F911E
:100500000F91FF90EF90BF90AF909F908F907F9052
:100510006F905F904F9008950F931F93CF93DF9349
:10052000EC018B01009709F436C1803C910521F460
:1005300060E180E081D32FC1C03484E0D80721F48A
:1005400068E080E079D327C1C115E4E0DE0721F43B
:1005500064E080E071D31FC1C038F1E0DF0721F40F
:1005600062E080E069D317C1C11581E0D80721F4AA
:1005700061E080E061D30FC1C038E3E0DE0721F421
:1005800061E081E059D307C1C039F3E0DF0721F40E
:1005900061E082E051D3FFC0C11582E0D80721F4A9
:1005A00062E081E049D3F7C0C034E2E0DE0721F425
:1005B00062E082E041D3EFC0C115F3E0DF0721F430
:1005C00064E081E039D3E7C0C03283E0D80721F48A
:1005D00064E082E031D3DFC0C115E8E0DE0721F43A
:1005E00061E083E029D3D7C0C115F9E0DF0721F42A
:1005F00061E084E021D3CFC0C1158AE0D80721F49F
:1006000061E085E019D3C7C0C115EBE0DE0721F436
:1006100061E086E011D3BFC0C034F8E0DF0721F409
:1006200062E083E009D3B7C0C03489E0D80721F481
:1006300062E084E001D3AFC0C034EAE0DE0721F419
:1006400062E085E0F9D2A7C0C034FBE0DF0721F407
:1006500062E086E0F1D29FC0C03988E0D80721F47B
:1006600064E083E0E9D297C0C039E9E0DE0721F415
:1006700064E084E0E1D28FC0C039FAE0DF0721F402
:1006800064E085E0D9D287C0C0398BE0D80721F477
:1006900064E086E0D1D27FC0C03CE8E0DE0721F410
:1006A00068E083E0C9D277C0C03CF9E0DF0721F4FD
:1006B00068E084E0C1D26FC0C03C8AE0D80721F472
:1006C00068E085E0B9D267C0C03CEBE0DE0721F40A
:1006D00068E086E0B1D25FC0C03AF8E0DF0721F4FD
:1006E00060E183E0A9D257C0C03A89E0D80721F47D
:1006F00060E184E0A1D24FC0C03AEAE0DE0721F415
:1007000060E185E099D247C0C03AFBE0DF0721F401
:1007100060E186E091D23FC0C03B88E0D80721F479
:1007200060E283E089D237C0C03BE9E0DE0721F414
:1007300060E284E081D22FC0C03BFAE0DF0721F401
:1007400060E285E079D227C0C03B8BE0D80721F476
:1007500060E286E071D21FC0C038E4E0DE0721F419
:1007600060E483E069D217C0C039F4E0DF0721F408
:1007700060E484E061D20FC0C03A84E0D80721F47D
:1007800060E485E059D207C0C03BE4E0DE0719F41D
:1007900060E486E051D28D818F738D83F80195815D
:1007A0008481892B9681911198E0892B8D83F801A2
:1007B000408151816281738100E018E428EE31E0CC
:1007C000CE0197DD9C8198609C839C8190619C8385
:1007D000DF91CF911F910F9108951F920F920FB645
:1007E0000F92112408B60F9218BE09B60F9219BEC7
:1007F0000BB60F921BBE2F933F934F935F936F9354
:100800007F938F939F93AF93BF93EF93FF93409109
:10081000240250912502E0912620F091272061E0EA
:1008200080E092E01995FF91EF91BF91AF919F9178
:100830008F917F916F915F914F913F912F910F9089
:100840000BBE0F9009BE0F9008BE0F900FBE0F9009
:100850001F9018951F920F920FB60F92112408B691
:100860000F9218BE09B60F9219BE0BB60F921BBE9F
:100870002F933F934F935F936F937F938F939F93A8
:10088000AF93BF93EF93FF9340912C0250912D02B1
:10089000E0912620F091272062E080E092E0199517
:1008A000FF91EF91BF91AF919F918F917F916F9148
:1008B0005F914F913F912F910F900BBE0F9009BE0A
:1008C0000F9008BE0F900FBE0F901F9018951F92AB
:1008D0000F920FB60F92112408B60F9218BE09B6E8
:1008E0000F9219BE0BB60F921BBE2F933F934F93DF
:1008F0005F936F937F938F939F93AF93BF93EF9388
:10090000FF934091340250913502E0912620F091FE
:10091000272064E080E092E01995FF91EF91BF916C
:10092000AF919F918F917F916F915F914F913F9187
:100930002F910F900BBE0F9009BE0F9008BE0F9025
:100940000FBE0F901F9018951F920F920FB60F9227
:10095000112408B60F9218BE09B60F9219BE0BB635
:100960000F921BBE2F933F934F935F936F937F9391
:100970008F939F93AF93BF93EF93FF9340913C026C
:1009800050913D02E0912620F091272068E080E020
:1009900092E01995FF91EF91BF91AF919F918F9147
:1009A0007F916F915F914F913F912F910F900BBE6F
:1009B0000F9009BE0F9008BE0F900FBE0F901F90B2
:1009C00018951F920F920FB60F92112408B60F922E
:1009D00018BE09B60F9219BE0BB60F921BBE2F930D
:1009E0003F934F935F936F937F938F939F93AF93B7
:1009F000BF93EF93FF934091640250916502E091A1
:100A00002420F091252061E080E492E01995FF9187
:100A1000EF91BF91AF919F918F917F916F915F9176
:100A20004F913F912F910F900BBE0F9009BE0F90E9
:100A300008BE0F900FBE0F901F9018951F920F9237
:100A40000FB60F92112408B60F9218BE09B60F9276
:100A500019BE0BB60F921BBE2F933F934F935F931C
:100A60006F937F938F939F93AF93BF93EF93FF9376
:100A700040916C0250916D02E0912420F09125206C
:100A800062E080E492E01995FF91EF91BF91AF9100
:100A90009F918F917F916F915F914F913F912F9196
:100AA0000F900BBE0F9009BE0F9008BE0F900FBEA7
:100AB0000F901F9018951F920F920FB60F9211244E
:100AC00008B60F9218BE09B60F9219BE0BB60F9258
:100AD0001BBE2F933F934F935F936F937F938F939F
:100AE0009F93AF93BF93EF93FF9340917402509104
:100AF0007502E0912420F091252064E080E492E0EA
:100B00001995FF91EF91BF91AF919F918F917F9137
:100B10006F915F914F913F912F910F900BBE0F906E
:100B200009BE0F9008BE0F900FBE0F901F90189532
:100B30001F920F920FB60F92112408B60F9218BE93
:100B400009B60F9219BE0BB60F921BBE2F933F939F
:100B50004F935F936F937F938F939F93AF93BF93C5
:100B6000EF93FF9340917C0250917D02E09124200D
:100B7000F091252068E080E492E01995FF91EF91D3
:100B8000BF91AF919F918F917F916F915F914F91A5
:100B90003F912F910F900BBE0F9009BE0F9008BE92
:100BA0000F900FBE0F901F901895682F80912A20EC
:100BB00090912B20E0912820F091292019959923DC
:100BC0001CF081E090E008958FEF9FEF0895CF93A0
:100BD000DF931F921F92CDB7DEB78FEF8093700027
:100BE00080937100809372008093730080937400EF
:100BF00080937500809376008FB78A83F8949A81EA
:100C0000E0E5F0E08081826080839FBF818181FF89
:100C1000FDCF61E080E490E025D08FB78983F89420
:100C20009981E0E5F0E080818E7F80839FBF0F9007
:100C30000F90DF91CF910895CF93DF931F92CDB79F
:100C4000DEB79FB79983F8949981E82FF0E0E059D7
:100C5000FF4F60958081682360839FBF0F90DF9175
:100C6000CF9108951BBEFC0128ED24BF6083089539
:100C700004C06150710981099109611571058105EF
:100C80009105B9F708950F931F93CF93DF938C01CC
:100C90005CD4C82FD0E0DC2FCC27C80156D49E01ED
:100CA000282BC901DF91CF911F910F910895CF9209
:100CB000DF92EF92FF92CF93DF93EC0146D4C82EE0
:100CC000D12CE12CF12C7601DD24CC24CE013DD4B5
:100CD000D82ACE013AD4A7019601282BCA01B9011E
:100CE000DF91CF91FF90EF90DF90CF900895FC01BE
:100CF000208341835283638315860895CF93DF93C6
:100D0000EC01888130D46EE189819A8126D46BE22E
:100D100078E680E090E0ACDF888139D466ED74E15C
:100D200080E090E0A5DFDF91CF910895CF93DF932E
:100D3000EC01E4DF888117D462EA89819A810DD4BD
:100D400089819A81A0DF8E879F87888120D48881BE
:100D50000AD464EA89819A8100D489819A8193DFD7
:100D6000888B998B888113D48881FDD366EA898129
:100D70009A81F3D389819A8186DF8A8B9B8B8881C4
:100D800006D48881F0D368EA89819A81E6D3898183
:100D90009A8179DF8C8B9D8B8881F9D38881E3D30D
:100DA0006AEA89819A81D9D389819A816CDF8E8B95
:100DB0009F8B8881ECD38881D6D36CEA89819A8114
:100DC000CCD389819A815FDF888F998F8881DFD327
:100DD000DF91CF910895823029F128F4882341F0E2
:100DE000813099F046C0833051F18430A9F141C07F
:100DF00088E4FB01808388E5FA01808380E593E243
:100E0000F9018083918380E0089586E4FB0180836B
:100E100086E5FA0180838CEB91E1F901808391836F
:100E200080E0089584E4FB01808384E5FA018083F7
:100E300088EE98E0F9018083918380E0089582E450
:100E4000FB01808382E5FA01808382E994E0F90165
:100E50008083918380E0089580E4FB01808380E5B6
:100E6000FA01808388E592E0F9018083918380E034
:100E7000089581E008952F923F924F925F926F9272
:100E80007F928F929F92AF92BF92CF92DF92EF921A
:100E9000FF920F931F93CF93DF93CDB7DEB7E59704
:100EA000CDBFDEBF4C0181E0D4011C968C931C9712
:100EB0009E012F5F3F4FAE014C5F5F4FBE016D5FE4
:100EC0007F4F1D968C9187DF882319F0F4011486DB
:100ED00026C3D4018C9147D36B81F4018181928127
:100EE0003CD3D4018C9153D349815A81411551058A
:100EF000C1F1A12C0F2EF8E4BF2EF02D0F2EF8EE2D
:100F0000CF2EF02DDD24D394E12CF12C00E010E065
:100F1000242F352F40E050E060E070E080E090E06A
:100F20000E94B6110F2EF6E0AF2EF02DB12CC12C81
:100F3000D12C0E940912215C3D4B404F5F4F6F4FF7
:100F40007F4F8F4F9F4F0E94F20F20E034E244E723
:100F500059E43DD7A9D7622F732F842F952F88DEB0
:100F600005C066E070E080E090E082DEF401808100
:100F7000FAD260E0D40111968D919C911297EDD236
:100F8000F4018181928193DE6CA77DA78EA79FA734
:100F9000D4018C91FCD2F4018081E5D26C81D40122
:100FA00011968D919C911297D8D2F4018081EFD245
:100FB00049815A8141155105B9F1A12C0F2EF8E450
:100FC000BF2EF02D0F2EF8EECF2EF02DDD24D39472
:100FD000E12CF12C00E010E0242F352F40E050E010
:100FE00060E070E080E090E00E94B6110F2EF6E025
:100FF000AF2EF02DB12CC12CD12C0E940912215CF6
:101000003D4B404F5F4F6F4F7F4F8F4F9F4FEAD702
:1010100020E034E244E759E4DAD646D7622F732F52
:10102000842F952F25DE05C066E070E080E090E01B
:101030001FDED4018C9197D260E0F401818192810E
:101040008CD2D40111968D919C91129730DE6B0158
:101050007C01F40180819BD2D40156964D915C9124
:101060005797242F352F40E050E060E070E080E09B
:1010700090E008E00E9465122D833E834F835887DD
:1010800069877A878B879C87970186018D819E81EE
:10109000AF81B885081B190B2A0B3B0B0D831E83F0
:1010A0002F833887330F000B102F9801098B1A8B71
:1010B0002B8B3C8BD40158964D915C915997AD8008
:1010C000BE80CF80D884E988FE2C0E2D1E2D242FC3
:1010D000352F40E050E060E070E080E090E00E945A
:1010E000B61107E10E947E12822F932FA42FB52FF5
:1010F0008D879E87AF87B88B8C019D010053184F59
:101100002F4F3F4F0D8B1E8B2F8B388F003D17407D
:10111000210531050CF087C0FE2C0E2D1E2D2A2D29
:101120003B2D4C2D5D2D602F702F802F9E2D0E940A
:10113000B611C22ED32EE42EF52E062F172FA82E71
:10114000B92EA0E00E94AE1284F421503109410969
:1011500050486F4F7F4F8F4F9F4FC22ED32EE42E9C
:10116000F52E062F172FA82EB92E2C2D3D2D4E2DE6
:101170005F2D602F712F8A2D9B2D0FE10E947E1213
:10118000298F3A8F4B8F5C8F4D845E846F84788873
:10119000770C4408542C32012D853E854F855889A3
:1011A000642D742D842D942D02E00E946512A22ED0
:1011B000B32EC42ED52EE62EF72EE82F192F04E0DD
:1011C0000E9465120E2F0E94A512AD84BE84CF84AA
:1011D000D888E42CF42C042D142D0E949C120E941B
:1011E000B61104E00E947E122D8F3E8F4F8F58A3C0
:1011F00069A37AA38BA3292E2A2D3B2D4C2D5D2D7F
:10120000642D742D842D942D01E00E946512042D0F
:101210000E94B6112D873CA34DA35EA36FA378A7B0
:1012200089A79AA714C01D861CA21DA21EA21FA2D8
:1012300018A619A61AA61D8E1E8E1F8E18A219A2F8
:101240001AA21BA2212C198E1A8E1B8E1C8E8D8920
:101250009E89AF89B88D8432EAEF9E07EFEFAE0723
:10126000BE070CF05DC02D893E894F89588D6C01F9
:101270007D01FF0CCC08DC2C76016C2D7C2D8C2D97
:101280009C2D24523A4F4F4F5F4F6F4F7F4F8F4FE0
:101290009F4F322E432E542E652E762EB72FA82F19
:1012A000F92F04E00E946512A32CB42CC52CD62C77
:1012B000E72CFB2E0A2F1F2F0E94A512E2E02E27FB
:1012C000AD8CBE8CCF8CD8A0E9A0FAA00BA1122DBA
:1012D0000E949C122D8F3E8F4F8F58A369A37AA333
:1012E0008BA3292E232D342D452D562D672D7B2F95
:1012F0008A2F9F2F03E00E9465122E27AD84BCA089
:10130000CDA0DEA0EFA0F8A409A51AA50E949C120A
:101310002D873CA34DA35EA36FA378A789A79AA7A7
:10132000D40113968C9113978150823018F01C963B
:101330001C92F5C0F40144895589AD80BE80CF80F0
:10134000D884E988FE2C0E2D1E2D242F352F40E049
:1013500050E060E070E080E090E00E94B61106E0AE
:101360000E947E12422E532E642E752EB62FA72F6A
:10137000382E9BA7F401A088B1882A2D3B2D40E090
:1013800050E060E070E080E090E001E10E946512D2
:10139000A22EB32EC42ED52EE62EF72E082F192FEF
:1013A000242D352D462D572D6B2F7A2F832D9BA560
:1013B0000E949C12322E3BA748AB59AB6AAB7BAB69
:1013C0008CAB9DAB42895389AD80BE80CF80D884E1
:1013D000E988FE2C0E2D1E2D242F352F40E050E0E5
:1013E00060E070E080E090E0C1D707E00E947E12EC
:1013F000422E532E642E752EB62FA72F8D83998BD8
:10140000F401A684B7842A2D3B2D40E050E060E033
:1014100070E080E090E000E10E946512A22EB32E01
:10142000C42ED52EE62EF72E082F192F242D352D5C
:10143000462D572D6B2F7A2F8D8199890E949C12F2
:10144000AD84BCA0CDA0DEA0EFA0F8A409A51AA58C
:101450000E94A512CCA4DDA4EEA4FFA4560167014E
:10146000E12CF12C8701AD82BE82CF82D886E9863D
:10147000FA860B871C87E12CF12C00E010E076D770
:1014800005E10E947E12422E532E642E752EB62F39
:10149000A72FF82FE92F232D3BA548A959A96AA901
:1014A0007BA98CA99DA9AD8CBE8CCF8CD8A0E9A0BE
:1014B000FAA00BA1122D0E94A512A22EB32EC42EAB
:1014C000D52EE62EF72E082F192F242D352D462D3B
:1014D000572D6B2F7A2F8F2F9E2F0E94A5120FE072
:1014E0000E947E12D40114962C93149715963C9367
:1014F000159716964C93169717965C938D899E892F
:10150000AF89B88DA98CBA8CCB8CDC8C8A199B09DD
:10151000AC09BD09F40180879187A287B387E5965E
:10152000CDBFDEBFDF91CF911F910F91FF90EF9064
:10153000DF90CF90BF90AF909F908F907F906F90F3
:101540005F904F903F902F900895FC018EEF838322
:1015500092819923ECF783810895FC016383928142
:101560009923ECF70895E82FE695E695E69540E295
:10157000E49FF0011124FA5F877021E030E0A901B7
:1015800002C0440F551F8A95E2F746830895E82F5D
:10159000E695E695E69540E2E49FF0011124FA5FB6
:1015A000877021E030E0A90102C0440F551F8A95E1
:1015B000E2F745830895E82FE695E695E69590E2F3
:1015C000E99FF0011124FA5F982F977021E030E035
:1015D00002C0220F331F9A95E2F72183D8CF0895D6
:1015E0000F931F93CF93DF93EC018B01009709F4C6
:1015F00036C1803C910521F460E180E01DDB2FC104
:10160000C03484E0D80721F468E080E015DB27C10E
:10161000C115E4E0DE0721F464E080E00DDB1FC1CA
:10162000C038F1E0DF0721F462E080E005DB17C19C
:10163000C11581E0D80721F461E080E0FDDA0FC137
:10164000C038E3E0DE0721F461E081E0F5DA07C1AC
:10165000C039F3E0DF0721F461E082E0EDDAFFC09A
:10166000C11582E0D80721F462E081E0E5DAF7C035
:10167000C034E2E0DE0721F462E082E0DDDAEFC0B0
:10168000C115F3E0DF0721F464E081E0D5DAE7C0BB
:10169000C03283E0D80721F464E082E0CDDADFC015
:1016A000C115E8E0DE0721F461E083E0C5DAD7C0C8
:1016B000C115F9E0DF0721F461E084E0BDDACFC0B5
:1016C000C1158AE0D80721F461E085E0B5DAC7C02A
:1016D000C115EBE0DE0721F461E086E0ADDABFC0C2
:1016E000C034F8E0DF0721F462E083E0A5DAB7C098
:1016F000C03489E0D80721F462E084E09DDAAFC00D
:10170000C034EAE0DE0721F462E085E095DAA7C0A4
:10171000C034FBE0DF0721F462E086E08DDA9FC091
:10172000C03988E0D80721F464E083E085DA97C007
:10173000C039E9E0DE0721F464E084E07DDA8FC09F
:10174000C039FAE0DF0721F464E085E075DA87C08C
:10175000C0398BE0D80721F464E086E06DDA7FC001
:10176000C03CE8E0DE0721F468E083E065DA77C09A
:10177000C03CF9E0DF0721F468E084E05DDA6FC087
:10178000C03C8AE0D80721F468E085E055DA67C0FC
:10179000C03CEBE0DE0721F468E086E04DDA5FC094
:1017A000C03AF8E0DF0721F460E183E045DA57C092
:1017B000C03A89E0D80721F460E184E03DDA4FC007
:1017C000C03AEAE0DE0721F460E185E035DA47C09F
:1017D000C03AFBE0DF0721F460E186E02DDA3FC08C
:1017E000C03B88E0D80721F460E283E025DA37C007
:1017F000C03BE9E0DE0721F460E284E01DDA2FC09F
:10180000C03BFAE0DF0721F460E285E015DA27C08B
:10181000C03B8BE0D80721F460E286E00DDA1FC000
:10182000C038E4E0DE0721F460E483E005DA17C0A5
:10183000C039F4E0DF0721F460E484E0FDD90FC093
:10184000C03A84E0D80721F460E485E0F5D907C008
:10185000C03BE4E0DE0719F460E486E0EDD9F8016E
:101860008181806B818381818F7B81838481806B87
:10187000848380858F7B808780ED8883DF91CF9103
:101880001F910F910895CF93DF93EB010E94730195
:101890008883DF91CF9108950C946B010895CF93C5
:1018A000DF93CDB7DEB72797CDBFDEBF60E183E022
:1018B000C3D9E0E4F6E080818860808380EA98E024
:1018C00080932A2090932B208CE49CE08093282006
:1018D0009093292083E49CE08093222090932320FE
:1018E000E6E0F0E284818D8385818E8386818F831B
:1018F00080819181A281B38189839A83AB83BC83E8
:1019000060E183E099D9BE016F5F7F4F80EA98E084
:101910000E948C0262E571E085ED95E03AD627964B
:10192000CDBFDEBFDF91CF91089504C06150710932
:10193000810991096115710581059105B9F708952E
:101940004F925F926F927F928F929F92AF92BF92CF
:10195000CF92DF92EF92FF920F931F9329013A01EA
:101960004701580102D36B017C01C301B201FDD2D2
:101970009B01AC01C701B6012AD200D46B017C01E6
:10198000C501B401F2D220E030E048EC52E41FD2AD
:1019900023E333E948E853E4B2D120E030E84FE8EC
:1019A00053E42CD42AE038EE4CE151E410D2A701E4
:1019B000960124D428E439EF41E550E41FD41F9167
:1019C0000F91FF90EF90DF90CF90BF90AF909F90DE
:1019D0008F907F906F905F904F900895CF92DF929D
:1019E000EF92FF920F931F93CF93DF938C016A01C5
:1019F0007B0161E083E020D964E083E01DD9C0E091
:101A0000D8E087E0888383E289830EA31FA36EA1B9
:101A10007FA180E090E0A9D2A7019601EFD379D20F
:101A20006AA77BA7DF91CF911F910F91FF90EF9055
:101A3000DF90CF900895CF93DF93CDB7DEB76F9748
:101A4000CDBFDEBFC4D8E0E8F6E08081816180834D
:101A500084818E7E8483E0E4F6E0808182608083EE
:101A600084818260848324E140EC58E061E0CE010F
:101A700001963DD960E476E080EC98E0B1DD8981A3
:101A80009ADDCE01019652D9CE010196F4D98D810D
:101A90009E81AF81B8858C8F9D8FAE8FBF8FFFDE0B
:101AA00040E050E060E07FE383E294EF97DF1B8E3D
:101AB0000F2EFDE0CF2EF0E2DF2EF02D0F2EF0E8FE
:101AC0002F2EF6E03F2EF02D9B8D913009F44BC068
:101AD00038F0923009F49AC0933009F4E0C008C19C
:101AE000CE010196C8D979846A845B844C84BD8018
:101AF000AE809F808884E72CF62C052D142D2B2D8D
:101B00003A2D492D582D6C8D7D8D8E8D9F8D18DF32
:101B1000E62EF72E082F192F4F925F926F927F9229
:101B20008F929F92AF92BF929F938F937F936F9369
:101B3000DF92CF9278D5CDBFDEBF20E030E040EF1E
:101B400051E46E2D7F2D802F912F0FD318160CF09E
:101B5000CFC04DEC5CEC6CEC7DE381E19AE73EDFBD
:101B6000B1E0BB8FC5C0CE01019685D979846A8466
:101B70005B844C84BD80AE809F808884E72CF62CEB
:101B8000052D142D2B2D3A2D492D582D6C8D7D8D25
:101B90008E8D9F8DD5DEE62EF72E082F192F4F92B2
:101BA0005F926F927F928F929F92AF92BF929F931C
:101BB0008F937F936F93DF92CF9235D5CDBFDEBFEA
:101BC00020E030E04FE254E46E2D7F2D802F912FE6
:101BD000CCD218160CF08CC04DEC5CEC6CEC7DE3B8
:101BE00086E998E1FBDED10114968C91149781600F
:101BF00014968C9366E575E885E491E096DEF10134
:101C000084818E7F8483F2E0FB8F72C0CE010196C7
:101C100032D979846A845B844C84BD80AE809F8095
:101C20008884E72CF62C052D142D2B2D3A2D492DCB
:101C3000582D6C8D7D8D8E8D9F8D82DEE62EF72E3C
:101C4000082F192F4F925F926F927F928F929F92DF
:101C5000AF92BF929F938F937F936F93DF92CF92B8
:101C6000E2D4CDBFDEBF20E030E048E452E46E2D88
:101C70007F2D802F912FA7D08823D4F54DEC5CECDD
:101C80006CEC7DE383E294EFA9DED10114968C9194
:101C90001497806114968C93B3E0BB8F29C0CE015A
:101CA0000196E9D879846A845B844C84BD80AE80D7
:101CB0009F808884E72CF62C052D142D2B2D3A2D92
:101CC000492D582D6C8D7D8D8E8D9F8D39DE4F92D7
:101CD0005F926F927F928F929F92AF92BF929F93EB
:101CE0008F937F936F93DF92CF929DD4CDBFDEBF52
:101CF0006BEA70EB88E290E018DEE6CE5058BB2726
:101D0000AA270ED0F8C1E9D130F0EED120F031F49D
:101D10009F3F11F41EF4CEC10EF4E095E7FBC4C161
:101D2000E92FFAD180F3BA17620773078407950782
:101D300018F071F49EF512C20EF4E0950B2EBA2F36
:101D4000A02D0B01B90190010C01CA01A0011124C1
:101D5000FF27591B99F0593F50F4503E68F11A166D
:101D6000F040A22F232F342F4427585FF3CF4695FE
:101D700037952795A795F0405395C9F77EF41F1620
:101D8000BA0B620B730B840BBAF09150A1F0FF0FEA
:101D9000BB1F661F771F881FC2F70EC0BA0F621FD6
:101DA000731F841F48F4879577956795B795F795C6
:101DB0009E3F08F0B3CF9395880F08F09927EE0F58
:101DC0009795879508954CD108F481E008950CD03B
:101DD00092C18AD140F081D130F021F45F3F19F0F7
:101DE00063C15111BCC166C197D198F39923C9F35E
:101DF0005523B1F3951B550BBB27AA276217730711
:101E0000840738F09F5F5F4F220F331F441FAA1FC4
:101E1000A9F333D00E2E3AF0E0E830D09150504084
:101E2000E695001CCAF729D0FE2F27D0660F771F32
:101E3000881FBB1F261737074807AB07B0E809F014
:101E4000BB0B802DBF01FF2793585F4F2AF09E3FA9
:101E5000510568F029C183C15F3FECF3983EDCF384
:101E6000869577956795B795F7959F5FC9F7880F22
:101E7000911D9695879597F90895E1E0660F771F74
:101E8000881FBB1F621773078407BA0720F0621B05
:101E9000730B840BBA0BEE1F88F7E0950895BEE331
:101EA00004D008F490E80895BFE322273327A9015E
:101EB0003BD158F19F5740F1B91738F1BFE3B91B37
:101EC0009927B8503AF4660F771F881F991FB3956A
:101ED000D2F316C0B8504AF0232F342F452F562F77
:101EE000672F782F8827B850BAF7B85F49F08695E2
:101EF000779567955795479537952795BA95B9F78B
:101F00000EF4DBD088940895889460E070E0CB01F3
:101F100008950AD188F09F5790F0B92F9927B751AB
:101F2000A0F0D1F0660F771F881F991F1AF0BA959D
:101F3000C9F712C0B13081F011D1B1E008950EC1DE
:101F4000672F782F8827B85F39F0B93FCCF3869593
:101F500077956795B395D9F73EF4909580957095F0
:101F600061957F4F8F4F9F4F0895E89409C097FB6D
:101F70003EF490958095709561957F4F8F4F9F4F60
:101F80009923A9F0F92F96E9BB279395F6958795A4
:101F900077956795B795F111F8CFFAF4BB0F11F467
:101FA00060FF1BC06F5F7F4F8F4F9F4F16C088230E
:101FB00011F096E911C0772321F09EE8872F762F44
:101FC00005C0662371F096E8862F70E060E02AF085
:101FD0009A95660F771F881FDAF7880F9695879571
:101FE00097F90895E894F92F96EBFF2381F01216E4
:101FF00013061406440B9395F69587957795679588
:1020000057954040FF23B9F71BC0992708958823AF
:1020100051F49850D2F7872B762F652F542F432FEA
:10202000322F20E0B1F3121613061406440B882356
:102030003AF09A95440F551F661F771F881FCAF7FD
:1020400055234AF4440F551F11F460FF04C06F5F1D
:102050007F4F8F4F9F4F880F9695879597F90895DB
:10206000990F0008550FAA0BE0E8FEEF16161706A9
:10207000E807F907C0F012161306E407F50798F011
:10208000621B730B840B950B39F40A2661F0232B2A
:10209000242B252B21F408950A2609F4A140A695A6
:1020A0008FEF811D811D089597F99F6780E870E08B
:1020B00060E008959FEF80EC08959095809570956D
:1020C000609550954095309521953F4F4F4F5F4F0C
:1020D0006F4F7F4F8F4F9F4F089500240A9416161D
:1020E000170618060906089500240A941216130606
:1020F000140605060895092E0394000C11F4882394
:1021000052F0BB0F40F4BF2B11F460FF04C06F5FAF
:102110007F4F8F4F9F4F089557FD9058440F551F85
:1021200059F05F3F71F04795880F97FB991F61F059
:102130009F3F79F087950895121613061406551FD0
:10214000F2CF4695F1DF08C0161617061806991F3C
:10215000F1CF86957105610508940895E894BB2731
:1021600066277727CB0197F908957ADF08F48FEF78
:1021700008950EF0A6C09ECF689496CFD5DFC8F321
:102180009923D1F3C6F3DF93CF931F930F93FF925D
:10219000C92FDD2788232AF02197660F771F881F14
:1021A000DAF720E030E040E85FEB9FE3883920F089
:1021B000803E30F021968F77A2DDECEFF1E003C096
:1021C0009EDDE9E2F2E08BD08B01BE01EC01FB2E3B
:1021D0006F5771097595771F880B990BC8DE28E139
:1021E00032E741E35FE316D0AF2D9801AE01FF90D7
:1021F0000F911F91CF91DF9193DD7DCF0BD07BCFDE
:102200006CDF28F071DF18F0952309F04DCF52CF25
:102210001124A5CF81DFA0F3959FD1F3950F50E056
:10222000551F629FF001729FBB27F00DB11D639F88
:10223000AA27F00DB11DAA1F649F6627B00DA11D2E
:10224000661F829F2227B00DA11D621F739FB00DD4
:10225000A11D621F839FA00D611D221F749F332744
:10226000A00D611D231F849F600D211D822F762FDD
:102270006A2F11249F5750408AF0E1F088234AF0DA
:10228000EE0FFF1FBB1F661F771F881F9150504026
:10229000A9F79E3F510570F007CF61CF5F3FECF388
:1022A000983EDCF3869577956795B795F795E79512
:1022B0009F5FC1F7FE2B880F911D9695879597F923
:1022C00008959F3F31F0915020F487957795679559
:1022D000B795880F911D9695879597F90895DF9387
:1022E000CF931F930F93FF92EF92DF927B018C01AC
:1022F000689405C0DA2EEF018DDFFE01E894A59108
:102300002591359145915591AEF3EF0109DDFE011F
:102310009701A801DA9479F7DF90EF90FF900F9181
:102320001F91CF91DF910895A1E21A2EAA1BBB1B2A
:10233000FD010DC0AA1FBB1FEE1FFF1FA217B30791
:10234000E407F50720F0A21BB30BE40BF50B661FA7
:10235000771F881F991F1A9469F76095709580956B
:1023600090959B01AC01BD01CF010895DF93CF9300
:102370001F930F939A9DF02D219FF00D8B9DF00DD3
:102380008A9DE02DF10D039FF00D029FE00DF11DE0
:102390004E9DE00DF11D5E9DF00D4F9DF00D7F9364
:1023A0006F93BF92AF925F934F93D501E3D08B01B0
:1023B000AC01D701DFD0EB01E80FF91FD6011FD028
:1023C0002F913F91D601D6D0C60FD71FE81FF91F16
:1023D000AF91BF9114D02F913F91CCD0C60FD71F92
:1023E000E81FF91FD601C6D0E60FF71F9801BE01FE
:1023F000CF0111240F911F91CF91DF910895BAD091
:10240000460F571FC81FD91F08F4319608956894C6
:1024100001C0E8948F929F92CF93DF9305D0DF9114
:10242000CF919F908F90089588249924F401E4011E
:10243000B0E49F93AA279A158B049C04ED05FE0532
:10244000CF05D007A10798F4AD2FDC2FCF2FFE2F9B
:10245000E92D982C892E982F872F762F652F542FB2
:10246000432F322F2227B85031F7BF9127C01B2EA0
:10247000BF91BB27220F331F441F551F661F771FB5
:10248000881F991F881C991CEE1FFF1FCC1FDD1F82
:10249000AA1FBB1F8A149B04EC05FD05CE05DF05B2
:1024A000A007B10748F08A189B08EC09FD09CE097E
:1024B000DF09A00BB10B21601A94E1F62EF4940110
:1024C000AF01BE01CD01000C08950F93083090F0CC
:1024D000982F872F762F652F542F432F322F2227A7
:1024E0000850F4CF220F331F441F551F661F771F5C
:1024F000881F991F0A95B2F70F91089597FB10F85E
:10250000169400080F93083098F00850232F342FAA
:10251000452F562F672F782F892F902DF4CF0594B4
:10252000979587957795679557954795379527950B
:102530000A95AAF70F9108952A0D3B1D4C1D5D1DAC
:102540006E1D7F1D801F911F08952A193B094C099C
:102550005D096E097F09800B910B08950024A7FD8A
:1025600000942A1730054005500560057005800568
:1025700090050895A29FB001B39FC001A39F700D65
:10258000811D1124911DB29F700D811D1124911D7B
:1025900008950F931F93CF93DF93009731F4611544
:1025A000710519F480E090E039C08B01EC016EE018
:1025B00070E081E090E041D2FC01892B99F380E842
:1025C00083830115110571F00287138781E88383E6
:1025D00080912C2090912D20892B21F4E0932C20A8
:1025E000F0932D202097C9F0C087D1878381826026
:1025F000838380912E2090912F20892B71F4E0937A
:102600002E20F0932F208091302090913120892B23
:1026100021F4E0933020F0933120CF01DF91CF916E
:102620001F910F910895CF93DF93CDB7DEB7AE0121
:102630004A5F5F4FFA0161917191AF0180912E2045
:1026400090912F2003D0DF91CF9108952F923F9248
:102650004F925F926F927F928F929F92AF92BF92B2
:10266000CF92DF92EF92FF920F931F93CF93DF935E
:10267000CDB7DEB72B97CDBFDEBF6C017B018A01E2
:10268000FC0116821782838181FFBFC1CE010196B2
:102690003C01F6019381F70193FD859193FF8191B0
:1026A0007F01882309F4ADC1853239F493FD85910A
:1026B00093FF81917F01853221F4B60190E015D31B
:1026C000E8CF912C212C312CFFE1F315D8F08B327F
:1026D00079F038F4803279F08332A1F4232D20612F
:1026E0001DC08D3261F0803369F4232D216016C046
:1026F000832D8260382EE32DE4603E2E2AC0F32D18
:10270000F8601DC037FC2DC020ED280F2A3040F0A6
:102710008E32B9F436FC75C1232D2064322E19C0D7
:1027200036FE06C08AE0989E200D1124922E11C01C
:10273000EAE02E9E200D1124222EF32DF0623F2E72
:1027400008C08C3621F4832D8068382E02C088366C
:1027500041F4F70193FD859193FF81917F018111F0
:10276000B3CF982F9F7D9554933028F40C5F1F4F63
:102770009FE399830DC0833631F0833771F0833541
:1027800009F055C020C0F801808189830E5F1F4F7A
:1027900088248394912C530112C02801F2E04F0E3B
:1027A000511CF801A080B18036FE03C0692D70E095
:1027B00002C06FEF7FEFC5018DD24C018201F32D76
:1027C000FF773F2E15C0280122E0420E511CF80170
:1027D000A080B18036FE03C0692D70E002C06FEFAB
:1027E0007FEFC50165D24C01F32DF0683F2E8201C9
:1027F00033FC19C0822D90E088169906A0F4B6012A
:1028000080E290E072D22A94F5CFF50137FC8591F1
:1028100037FE81915F01B60190E067D221102A94C2
:1028200021E0821A91088114910479F7E1C084367D
:1028300011F0893639F5F80137FE07C060817181E2
:10284000828193810C5F1F4F08C060817181072EC8
:10285000000C880B990B0E5F1F4FF32DFF763F2E58
:1028600097FF09C090958095709561957F4F8F4F28
:102870009F4FF0683F2E2AE030E0A30172D2882EED
:10288000861844C0853731F4232D2F7EB22E2AE0DE
:1028900030E025C0932D997FB92E8F36C1F018F402
:1028A000883579F0AEC0803719F0883721F0A9C09B
:1028B000E92FE061BE2EB4FE0DC0FB2DF460BF2EEB
:1028C00009C034FE0AC0292F2660B22E06C028E0B7
:1028D00030E005C020E130E002C020E132E0F80144
:1028E000B7FE07C060817181828193810C5F1F4FA9
:1028F00006C06081718180E090E00E5F1F4FA301F0
:1029000030D2882E8618FB2DFF773F2E36FE0DC065
:10291000232D2E7FA22E891458F434FE0BC032FCD6
:1029200009C0832D8E7EA82E05C0B82CA32C03C011
:10293000B82C01C0B92CA4FE0FC0FE01E80DF11D9A
:102940008081803321F49A2D997EA92E09C0A2FEA0
:1029500006C0B394B39404C08A2D867809F0B3946A
:10296000A3FC10C0A0FE06C0B21480F4280C922C68
:102970009B180DC0B21458F4B60180E290E0B5D1B6
:10298000B394F8CFB21418F42B1802C0982C212C51
:10299000A4FE0FC0B60180E390E0A7D1A2FE16C04E
:1029A000A1FC03C088E790E002C088E590E0B60192
:1029B0000CC08A2D867851F0A1FE02C08BE201C0C6
:1029C00080E2A7FC8DE2B60190E08FD1891430F44B
:1029D000B60180E390E089D19A94F8CF8A94F3010C
:1029E000E80DF11D8081B60190E07FD18110F6CF16
:1029F000222009F44ECEB60180E290E076D12A94EE
:102A0000F7CFF6018681978102C08FEF9FEF2B965B
:102A1000CDBFDEBFDF91CF911F910F91FF90EF905F
:102A2000DF90CF90BF90AF909F908F907F906F90EE
:102A30005F904F903F902F9008950F931F93CF93E7
:102A4000DF93869F8001879F100D969F100D1124A4
:102A5000C8010DD0EC01009721F0A80160E070E002
:102A600032D1CE01DF91CF911F910F9108950F9335
:102A70001F93CF93DF938230910510F482E090E0B2
:102A8000E0913420F091352020E030E0A0E0B0E08B
:102A9000309719F1408151810281138148175907FC
:102AA000C8F08417950769F4109731F012960C93CB
:102AB000129713961C9327C000933420109335204F
:102AC00022C02115310519F04217530718F49A0155
:102AD000BD01EF01DF01F801DBCF21153105F9F070
:102AE000281B390B2430310580F48A819B816115C4
:102AF000710521F0FB018283938304C0809334200D
:102B000090933520FE01329644C0FE01E20FF31F80
:102B10008193919322503109288339833AC02091BF
:102B2000322030913320232B41F420910220309128
:102B300003202093322030933320209100203091C5
:102B400001202115310541F42DB73EB740910420F5
:102B500050910520241B350BE0913220F091332059
:102B6000E217F307A0F42E1B3F0B2817390778F064
:102B7000AC014E5F5F4F2417350748F04E0F5F1FC3
:102B800040933220509333208193919302C0E0E030
:102B9000F0E0CF01DF91CF911F910F910895CF9376
:102BA000DF93009709F481C0FC01329712821382EF
:102BB000A0913420B0913520109781F4208131818B
:102BC000820F931F2091322030913320281739072C
:102BD00051F5E0933220F093332067C0ED0120E0FF
:102BE00030E0CE17DF0740F44A815B819E0141153A
:102BF0005105F1F0EA01F5CFC283D38340815181C1
:102C0000840F951FC817D90759F488819981840FBB
:102C1000951F0296808391838A819B81828393830F
:102C20002115310529F4E0933420F09335203DC07F
:102C3000E901EA83FB8349915991C40FD51FEC1731
:102C4000FD0761F480819181840F951F0296E9014F
:102C500088839983828193818A839B83E0E0F0E07B
:102C600012968D919C911397009719F0FD01DC014C
:102C7000F7CF8D919C9111979D012E5F3F4F820F51
:102C8000931F20913220309133202817390769F49F
:102C9000309729F4109234201092352002C012820D
:102CA0001382A0933220B0933320DF91CF91089507
:102CB000FC010590615070400110D8F78095909507
:102CC0008E0F9F1F0895DC0101C06D93415050404D
:102CD000E0F70895FC016150704001900110D8F7B1
:102CE000809590958E0F9F1F08950F931F93CF93FC
:102CF000DF93FB01238121FD03C08FEF9FEF2CC0E9
:102D000022FF16C04681578124813581421753071F
:102D100044F4A081B1819D012F5F3F4F2083318317
:102D20008C93268137812F5F3F4F2683378314C0D2
:102D30008B01EC01FB010084F185E02D1995892BB5
:102D4000E1F6D80116968D919C91179701961696EB
:102D50008D939C931797CE01DF91CF911F910F9187
:102D60000895FA01AA27283051F1203181F1E89421
:102D70006F936E7F6E5F7F4F8F4F9F4FAF4FB1E06E
:102D80003ED0B4E03CD0670F781F891F9A1FA11D69
:102D9000680F791F8A1F911DA11D6A0F711D811D6A
:102DA000911DA11D20D009F468943F912AE0269F2F
:102DB00011243019305D3193DEF6CF010895462F8E
:102DC0004770405D4193B3E00FD0C9F7F6CF462F6F
:102DD0004F70405D4A3318F0495D31FD40524193D8
:102DE00002D0A9F7EACFB4E0A69597958795779595
:102DF0006795BA95C9F700976105710508959B011C
:102E0000AC010A2E06945795479537952795BA95A4
:102E1000C9F7620F731F841F951FA01D0895F894B2
:022E2000FFCFE2
:102E220000003620200080250000030001465330B8
:102E32002C20256C752C20256C752C20256C750A90
:022E420000008E
:00000001FF
